{
  "_format": "hh-sol-artifact-1",
  "contractName": "Wallet",
  "sourceName": "contracts/Wallet.sol",
  "abi": [
    {
      "inputs": [],
      "stateMutability": "nonpayable",
      "type": "constructor"
    },
    {
      "anonymous": false,
      "inputs": [
        {
          "indexed": false,
          "internalType": "uint256",
          "name": "amount",
          "type": "uint256"
        },
        {
          "indexed": false,
          "internalType": "uint256",
          "name": "when",
          "type": "uint256"
        }
      ],
      "name": "Received",
      "type": "event"
    },
    {
      "anonymous": false,
      "inputs": [
        {
          "indexed": false,
          "internalType": "uint256",
          "name": "amount",
          "type": "uint256"
        },
        {
          "indexed": false,
          "internalType": "uint256",
          "name": "when",
          "type": "uint256"
        }
      ],
      "name": "Withdrawal",
      "type": "event"
    },
    {
      "inputs": [],
      "name": "getBalance",
      "outputs": [
        {
          "internalType": "uint256",
          "name": "",
          "type": "uint256"
        }
      ],
      "stateMutability": "view",
      "type": "function"
    },
    {
      "inputs": [],
      "name": "owner",
      "outputs": [
        {
          "internalType": "address",
          "name": "",
          "type": "address"
        }
      ],
      "stateMutability": "view",
      "type": "function"
    },
    {
      "inputs": [],
      "name": "topUp",
      "outputs": [],
      "stateMutability": "payable",
      "type": "function"
    },
    {
      "inputs": [
        {
          "internalType": "address payable",
          "name": "_to",
          "type": "address"
        }
      ],
      "name": "withdraw",
      "outputs": [],
      "stateMutability": "payable",
      "type": "function"
    },
    {
      "stateMutability": "payable",
      "type": "receive"
    }
  ],
  "bytecode": "0x608060405234801561001057600080fd5b50336000806101000a81548173ffffffffffffffffffffffffffffffffffffffff021916908373ffffffffffffffffffffffffffffffffffffffff160217905550610542806100606000396000f3fe6080604052600436106100435760003560e01c806312065fe01461008857806351cff8d9146100b35780638da5cb5b146100cf578063dc29f1de146100fa57610083565b36610083577f49b838b1f120c3d2fb431047a22c4c3f41cbebfeec469a48c6d0f94db4b831b53442604051610079929190610313565b60405180910390a1005b600080fd5b34801561009457600080fd5b5061009d610104565b6040516100aa919061033c565b60405180910390f35b6100cd60048036038101906100c891906103ba565b61010c565b005b3480156100db57600080fd5b506100e461029b565b6040516100f19190610408565b60405180910390f35b6101026102bf565b005b600047905090565b803373ffffffffffffffffffffffffffffffffffffffff1660008054906101000a900473ffffffffffffffffffffffffffffffffffffffff1673ffffffffffffffffffffffffffffffffffffffff161461019b576040517f08c379a000000000000000000000000000000000000000000000000000000000815260040161019290610480565b60405180910390fd5b600073ffffffffffffffffffffffffffffffffffffffff168173ffffffffffffffffffffffffffffffffffffffff160361020a576040517f08c379a0000000000000000000000000000000000000000000000000000000008152600401610201906104ec565b60405180910390fd5b6000610214610104565b90508273ffffffffffffffffffffffffffffffffffffffff166108fc829081150290604051600060405180830381858888f1935050505015801561025c573d6000803e3d6000fd5b507fbf2ed60bd5b5965d685680c01195c9514e4382e28e3a5a2d2d5244bf59411b93814260405161028e929190610313565b60405180910390a1505050565b60008054906101000a900473ffffffffffffffffffffffffffffffffffffffff1681565b7f49b838b1f120c3d2fb431047a22c4c3f41cbebfeec469a48c6d0f94db4b831b534426040516102f0929190610313565b60405180910390a1565b6000819050919050565b61030d816102fa565b82525050565b60006040820190506103286000830185610304565b6103356020830184610304565b9392505050565b60006020820190506103516000830184610304565b92915050565b600080fd5b600073ffffffffffffffffffffffffffffffffffffffff82169050919050565b60006103878261035c565b9050919050565b6103978161037c565b81146103a257600080fd5b50565b6000813590506103b48161038e565b92915050565b6000602082840312156103d0576103cf610357565b5b60006103de848285016103a5565b91505092915050565b60006103f28261035c565b9050919050565b610402816103e7565b82525050565b600060208201905061041d60008301846103f9565b92915050565b600082825260208201905092915050565b7f6675636b206f6666000000000000000000000000000000000000000000000000600082015250565b600061046a600883610423565b915061047582610434565b602082019050919050565b600060208201905081810360008301526104998161045d565b9050919050565b7f6675636b206f666620616761696e000000000000000000000000000000000000600082015250565b60006104d6600e83610423565b91506104e1826104a0565b602082019050919050565b60006020820190508181036000830152610505816104c9565b905091905056fea26469706673582212200a36deebbe3d03f3321e87febf2b946f9f72fd38c8cb3994e560beb5419f7fd664736f6c63430008180033",
  "linkReferences": {},
  "deployedLinkReferences": {}
}